{
  "_format": "hh-sol-artifact-1",
  "contractName": "Checks",
  "sourceName": "contracts/Checks.sol",
  "abi": [
    {
      "inputs": [],
      "stateMutability": "nonpayable",
      "type": "constructor"
    },
    {
      "inputs": [],
      "name": "BlackCheck__InvalidCheck",
      "type": "error"
    },
    {
      "inputs": [],
      "name": "ERC721__InvalidApproval",
      "type": "error"
    },
    {
      "inputs": [],
      "name": "ERC721__InvalidOwner",
      "type": "error"
    },
    {
      "inputs": [],
      "name": "ERC721__InvalidToken",
      "type": "error"
    },
    {
      "inputs": [],
      "name": "ERC721__NotAllowed",
      "type": "error"
    },
    {
      "inputs": [],
      "name": "ERC721__TokenExists",
      "type": "error"
    },
    {
      "inputs": [],
      "name": "ERC721__TransferToNonReceiver",
      "type": "error"
    },
    {
      "inputs": [],
      "name": "ERC721__TransferToZero",
      "type": "error"
    },
    {
      "inputs": [],
      "name": "InvalidTokenCount",
      "type": "error"
    },
    {
      "inputs": [],
      "name": "NotAllowed",
      "type": "error"
    },
    {
      "anonymous": false,
      "inputs": [
        {
          "indexed": true,
          "internalType": "address",
          "name": "owner",
          "type": "address"
        },
        {
          "indexed": true,
          "internalType": "address",
          "name": "approved",
          "type": "address"
        },
        {
          "indexed": true,
          "internalType": "uint256",
          "name": "tokenId",
          "type": "uint256"
        }
      ],
      "name": "Approval",
      "type": "event"
    },
    {
      "anonymous": false,
      "inputs": [
        {
          "indexed": true,
          "internalType": "address",
          "name": "owner",
          "type": "address"
        },
        {
          "indexed": true,
          "internalType": "address",
          "name": "operator",
          "type": "address"
        },
        {
          "indexed": false,
          "internalType": "bool",
          "name": "approved",
          "type": "bool"
        }
      ],
      "name": "ApprovalForAll",
      "type": "event"
    },
    {
      "anonymous": false,
      "inputs": [
        {
          "indexed": true,
          "internalType": "uint256",
          "name": "tokenId",
          "type": "uint256"
        },
        {
          "indexed": true,
          "internalType": "uint256",
          "name": "burnedId",
          "type": "uint256"
        },
        {
          "indexed": true,
          "internalType": "uint8",
          "name": "checks",
          "type": "uint8"
        }
      ],
      "name": "Composite",
      "type": "event"
    },
    {
      "anonymous": false,
      "inputs": [
        {
          "indexed": true,
          "internalType": "uint256",
          "name": "tokenId",
          "type": "uint256"
        },
        {
          "indexed": true,
          "internalType": "uint256[]",
          "name": "burnedIds",
          "type": "uint256[]"
        }
      ],
      "name": "Infinity",
      "type": "event"
    },
    {
      "anonymous": false,
      "inputs": [
        {
          "indexed": false,
          "internalType": "uint256",
          "name": "_tokenId",
          "type": "uint256"
        }
      ],
      "name": "MetadataUpdate",
      "type": "event"
    },
    {
      "anonymous": false,
      "inputs": [
        {
          "indexed": true,
          "internalType": "uint256",
          "name": "epoch",
          "type": "uint256"
        },
        {
          "indexed": true,
          "internalType": "uint64",
          "name": "revealBlock",
          "type": "uint64"
        }
      ],
      "name": "NewEpoch",
      "type": "event"
    },
    {
      "anonymous": false,
      "inputs": [
        {
          "indexed": true,
          "internalType": "uint256",
          "name": "burnedId",
          "type": "uint256"
        },
        {
          "indexed": true,
          "internalType": "uint256",
          "name": "tokenId",
          "type": "uint256"
        }
      ],
      "name": "Sacrifice",
      "type": "event"
    },
    {
      "anonymous": false,
      "inputs": [
        {
          "indexed": true,
          "internalType": "address",
          "name": "from",
          "type": "address"
        },
        {
          "indexed": true,
          "internalType": "address",
          "name": "to",
          "type": "address"
        },
        {
          "indexed": true,
          "internalType": "uint256",
          "name": "tokenId",
          "type": "uint256"
        }
      ],
      "name": "Transfer",
      "type": "event"
    },
    {
      "inputs": [
        {
          "internalType": "address",
          "name": "to",
          "type": "address"
        },
        {
          "internalType": "uint256",
          "name": "tokenId",
          "type": "uint256"
        }
      ],
      "name": "approve",
      "outputs": [],
      "stateMutability": "nonpayable",
      "type": "function"
    },
    {
      "inputs": [
        {
          "internalType": "address",
          "name": "owner",
          "type": "address"
        }
      ],
      "name": "balanceOf",
      "outputs": [
        {
          "internalType": "uint256",
          "name": "",
          "type": "uint256"
        }
      ],
      "stateMutability": "view",
      "type": "function"
    },
    {
      "inputs": [
        {
          "internalType": "uint256",
          "name": "tokenId",
          "type": "uint256"
        }
      ],
      "name": "burn",
      "outputs": [],
      "stateMutability": "nonpayable",
      "type": "function"
    },
    {
      "inputs": [
        {
          "internalType": "uint256",
          "name": "tokenId",
          "type": "uint256"
        }
      ],
      "name": "colors",
      "outputs": [
        {
          "internalType": "string[]",
          "name": "",
          "type": "string[]"
        },
        {
          "internalType": "uint256[]",
          "name": "",
          "type": "uint256[]"
        }
      ],
      "stateMutability": "view",
      "type": "function"
    },
    {
      "inputs": [
        {
          "internalType": "uint256",
          "name": "tokenId",
          "type": "uint256"
        },
        {
          "internalType": "uint256",
          "name": "burnId",
          "type": "uint256"
        },
        {
          "internalType": "bool",
          "name": "swap",
          "type": "bool"
        }
      ],
      "name": "composite",
      "outputs": [],
      "stateMutability": "nonpayable",
      "type": "function"
    },
    {
      "inputs": [
        {
          "internalType": "uint256[]",
          "name": "tokenIds",
          "type": "uint256[]"
        },
        {
          "internalType": "uint256[]",
          "name": "burnIds",
          "type": "uint256[]"
        }
      ],
      "name": "compositeMany",
      "outputs": [],
      "stateMutability": "nonpayable",
      "type": "function"
    },
    {
      "inputs": [],
      "name": "editionChecks",
      "outputs": [
        {
          "internalType": "contract IChecksEdition",
          "name": "",
          "type": "address"
        }
      ],
      "stateMutability": "view",
      "type": "function"
    },
    {
      "inputs": [
        {
          "internalType": "uint256",
          "name": "tokenId",
          "type": "uint256"
        }
      ],
      "name": "getApproved",
      "outputs": [
        {
          "internalType": "address",
          "name": "",
          "type": "address"
        }
      ],
      "stateMutability": "view",
      "type": "function"
    },
    {
      "inputs": [
        {
          "internalType": "uint256",
          "name": "tokenId",
          "type": "uint256"
        }
      ],
      "name": "getCheck",
      "outputs": [
        {
          "components": [
            {
              "components": [
                {
                  "internalType": "uint16[6]",
                  "name": "composites",
                  "type": "uint16[6]"
                },
                {
                  "internalType": "uint8[5]",
                  "name": "colorBands",
                  "type": "uint8[5]"
                },
                {
                  "internalType": "uint8[5]",
                  "name": "gradients",
                  "type": "uint8[5]"
                },
                {
                  "internalType": "uint8",
                  "name": "divisorIndex",
                  "type": "uint8"
                },
                {
                  "internalType": "uint32",
                  "name": "epoch",
                  "type": "uint32"
                },
                {
                  "internalType": "uint16",
                  "name": "seed",
                  "type": "uint16"
                },
                {
                  "internalType": "uint24",
                  "name": "day",
                  "type": "uint24"
                }
              ],
              "internalType": "struct IChecks.StoredCheck",
              "name": "stored",
              "type": "tuple"
            },
            {
              "internalType": "bool",
              "name": "isRevealed",
              "type": "bool"
            },
            {
              "internalType": "uint256",
              "name": "seed",
              "type": "uint256"
            },
            {
              "internalType": "uint8",
              "name": "checksCount",
              "type": "uint8"
            },
            {
              "internalType": "bool",
              "name": "hasManyChecks",
              "type": "bool"
            },
            {
              "internalType": "uint16",
              "name": "composite",
              "type": "uint16"
            },
            {
              "internalType": "bool",
              "name": "isRoot",
              "type": "bool"
            },
            {
              "internalType": "uint8",
              "name": "colorBand",
              "type": "uint8"
            },
            {
              "internalType": "uint8",
              "name": "gradient",
              "type": "uint8"
            },
            {
              "internalType": "uint8",
              "name": "direction",
              "type": "uint8"
            },
            {
              "internalType": "uint8",
              "name": "speed",
              "type": "uint8"
            }
          ],
          "internalType": "struct IChecks.Check",
          "name": "check",
          "type": "tuple"
        }
      ],
      "stateMutability": "view",
      "type": "function"
    },
    {
      "inputs": [],
      "name": "getEpoch",
      "outputs": [
        {
          "internalType": "uint256",
          "name": "",
          "type": "uint256"
        }
      ],
      "stateMutability": "view",
      "type": "function"
    },
    {
      "inputs": [
        {
          "internalType": "uint256",
          "name": "index",
          "type": "uint256"
        }
      ],
      "name": "getEpochData",
      "outputs": [
        {
          "components": [
            {
              "internalType": "uint128",
              "name": "randomness",
              "type": "uint128"
            },
            {
              "internalType": "uint64",
              "name": "revealBlock",
              "type": "uint64"
            },
            {
              "internalType": "bool",
              "name": "committed",
              "type": "bool"
            },
            {
              "internalType": "bool",
              "name": "revealed",
              "type": "bool"
            }
          ],
          "internalType": "struct IChecks.Epoch",
          "name": "",
          "type": "tuple"
        }
      ],
      "stateMutability": "view",
      "type": "function"
    },
    {
      "inputs": [
        {
          "internalType": "uint256",
          "name": "tokenId",
          "type": "uint256"
        },
        {
          "internalType": "uint256",
          "name": "burnId",
          "type": "uint256"
        }
      ],
      "name": "inItForTheArt",
      "outputs": [],
      "stateMutability": "nonpayable",
      "type": "function"
    },
    {
      "inputs": [
        {
          "internalType": "uint256[]",
          "name": "tokenIds",
          "type": "uint256[]"
        },
        {
          "internalType": "uint256[]",
          "name": "burnIds",
          "type": "uint256[]"
        }
      ],
      "name": "inItForTheArts",
      "outputs": [],
      "stateMutability": "nonpayable",
      "type": "function"
    },
    {
      "inputs": [
        {
          "internalType": "uint256[]",
          "name": "tokenIds",
          "type": "uint256[]"
        }
      ],
      "name": "infinity",
      "outputs": [],
      "stateMutability": "nonpayable",
      "type": "function"
    },
    {
      "inputs": [
        {
          "internalType": "address",
          "name": "owner",
          "type": "address"
        },
        {
          "internalType": "address",
          "name": "operator",
          "type": "address"
        }
      ],
      "name": "isApprovedForAll",
      "outputs": [
        {
          "internalType": "bool",
          "name": "",
          "type": "bool"
        }
      ],
      "stateMutability": "view",
      "type": "function"
    },
    {
      "inputs": [
        {
          "internalType": "uint256[]",
          "name": "tokenIds",
          "type": "uint256[]"
        },
        {
          "internalType": "address",
          "name": "recipient",
          "type": "address"
        }
      ],
      "name": "mint",
      "outputs": [],
      "stateMutability": "nonpayable",
      "type": "function"
    },
    {
      "inputs": [],
      "name": "name",
      "outputs": [
        {
          "internalType": "string",
          "name": "",
          "type": "string"
        }
      ],
      "stateMutability": "view",
      "type": "function"
    },
    {
      "inputs": [
        {
          "internalType": "uint256",
          "name": "tokenId",
          "type": "uint256"
        }
      ],
      "name": "ownerOf",
      "outputs": [
        {
          "internalType": "address",
          "name": "",
          "type": "address"
        }
      ],
      "stateMutability": "view",
      "type": "function"
    },
    {
      "inputs": [],
      "name": "resolveEpochIfNecessary",
      "outputs": [],
      "stateMutability": "nonpayable",
      "type": "function"
    },
    {
      "inputs": [
        {
          "internalType": "address",
          "name": "from",
          "type": "address"
        },
        {
          "internalType": "address",
          "name": "to",
          "type": "address"
        },
        {
          "internalType": "uint256",
          "name": "tokenId",
          "type": "uint256"
        }
      ],
      "name": "safeTransferFrom",
      "outputs": [],
      "stateMutability": "nonpayable",
      "type": "function"
    },
    {
      "inputs": [
        {
          "internalType": "address",
          "name": "from",
          "type": "address"
        },
        {
          "internalType": "address",
          "name": "to",
          "type": "address"
        },
        {
          "internalType": "uint256",
          "name": "tokenId",
          "type": "uint256"
        },
        {
          "internalType": "bytes",
          "name": "data",
          "type": "bytes"
        }
      ],
      "name": "safeTransferFrom",
      "outputs": [],
      "stateMutability": "nonpayable",
      "type": "function"
    },
    {
      "inputs": [
        {
          "internalType": "address",
          "name": "operator",
          "type": "address"
        },
        {
          "internalType": "bool",
          "name": "approved",
          "type": "bool"
        }
      ],
      "name": "setApprovalForAll",
      "outputs": [],
      "stateMutability": "nonpayable",
      "type": "function"
    },
    {
      "inputs": [
        {
          "internalType": "uint256",
          "name": "tokenId",
          "type": "uint256"
        },
        {
          "internalType": "uint256",
          "name": "burnId",
          "type": "uint256"
        }
      ],
      "name": "simulateComposite",
      "outputs": [
        {
          "components": [
            {
              "components": [
                {
                  "internalType": "uint16[6]",
                  "name": "composites",
                  "type": "uint16[6]"
                },
                {
                  "internalType": "uint8[5]",
                  "name": "colorBands",
                  "type": "uint8[5]"
                },
                {
                  "internalType": "uint8[5]",
                  "name": "gradients",
                  "type": "uint8[5]"
                },
                {
                  "internalType": "uint8",
                  "name": "divisorIndex",
                  "type": "uint8"
                },
                {
                  "internalType": "uint32",
                  "name": "epoch",
                  "type": "uint32"
                },
                {
                  "internalType": "uint16",
                  "name": "seed",
                  "type": "uint16"
                },
                {
                  "internalType": "uint24",
                  "name": "day",
                  "type": "uint24"
                }
              ],
              "internalType": "struct IChecks.StoredCheck",
              "name": "stored",
              "type": "tuple"
            },
            {
              "internalType": "bool",
              "name": "isRevealed",
              "type": "bool"
            },
            {
              "internalType": "uint256",
              "name": "seed",
              "type": "uint256"
            },
            {
              "internalType": "uint8",
              "name": "checksCount",
              "type": "uint8"
            },
            {
              "internalType": "bool",
              "name": "hasManyChecks",
              "type": "bool"
            },
            {
              "internalType": "uint16",
              "name": "composite",
              "type": "uint16"
            },
            {
              "internalType": "bool",
              "name": "isRoot",
              "type": "bool"
            },
            {
              "internalType": "uint8",
              "name": "colorBand",
              "type": "uint8"
            },
            {
              "internalType": "uint8",
              "name": "gradient",
              "type": "uint8"
            },
            {
              "internalType": "uint8",
              "name": "direction",
              "type": "uint8"
            },
            {
              "internalType": "uint8",
              "name": "speed",
              "type": "uint8"
            }
          ],
          "internalType": "struct IChecks.Check",
          "name": "check",
          "type": "tuple"
        }
      ],
      "stateMutability": "view",
      "type": "function"
    },
    {
      "inputs": [
        {
          "internalType": "uint256",
          "name": "tokenId",
          "type": "uint256"
        },
        {
          "internalType": "uint256",
          "name": "burnId",
          "type": "uint256"
        }
      ],
      "name": "simulateCompositeSVG",
      "outputs": [
        {
          "internalType": "string",
          "name": "",
          "type": "string"
        }
      ],
      "stateMutability": "view",
      "type": "function"
    },
    {
      "inputs": [
        {
          "internalType": "bytes4",
          "name": "interfaceId",
          "type": "bytes4"
        }
      ],
      "name": "supportsInterface",
      "outputs": [
        {
          "internalType": "bool",
          "name": "",
          "type": "bool"
        }
      ],
      "stateMutability": "view",
      "type": "function"
    },
    {
      "inputs": [
        {
          "internalType": "uint256",
          "name": "tokenId",
          "type": "uint256"
        }
      ],
      "name": "svg",
      "outputs": [
        {
          "internalType": "string",
          "name": "",
          "type": "string"
        }
      ],
      "stateMutability": "view",
      "type": "function"
    },
    {
      "inputs": [],
      "name": "symbol",
      "outputs": [
        {
          "internalType": "string",
          "name": "",
          "type": "string"
        }
      ],
      "stateMutability": "view",
      "type": "function"
    },
    {
      "inputs": [
        {
          "internalType": "uint256",
          "name": "tokenId",
          "type": "uint256"
        }
      ],
      "name": "tokenURI",
      "outputs": [
        {
          "internalType": "string",
          "name": "",
          "type": "string"
        }
      ],
      "stateMutability": "view",
      "type": "function"
    },
    {
      "inputs": [],
      "name": "totalSupply",
      "outputs": [
        {
          "internalType": "uint256",
          "name": "",
          "type": "uint256"
        }
      ],
      "stateMutability": "view",
      "type": "function"
    },
    {
      "inputs": [
        {
          "internalType": "address",
          "name": "from",
          "type": "address"
        },
        {
          "internalType": "address",
          "name": "to",
          "type": "address"
        },
        {
          "internalType": "uint256",
          "name": "tokenId",
          "type": "uint256"
        }
      ],
      "name": "transferFrom",
      "outputs": [],
      "stateMutability": "nonpayable",
      "type": "function"
    }
  ],
  "bytecode": "0x60806040523480156200001157600080fd5b506040518060400160405280600681526020017f436865636b73000000000000000000000000000000000000000000000000000081525060009081620000589190620003a4565b506040518060400160405280600681526020017f434845434b530000000000000000000000000000000000000000000000000000815250600190816200009f9190620003a4565b507334eebee6942d8def3c125458d1a86e0a897fd6f9600660006101000a81548173ffffffffffffffffffffffffffffffffffffffff021916908373ffffffffffffffffffffffffffffffffffffffff16021790555042600760010160086101000a81548163ffffffff021916908363ffffffff16021790555060016007600301819055506200048b565b600081519050919050565b7f4e487b7100000000000000000000000000000000000000000000000000000000600052604160045260246000fd5b7f4e487b7100000000000000000000000000000000000000000000000000000000600052602260045260246000fd5b60006002820490506001821680620001ac57607f821691505b602082108103620001c257620001c162000164565b5b50919050565b60008190508160005260206000209050919050565b60006020601f8301049050919050565b600082821b905092915050565b6000600883026200022c7fffffffffffffffffffffffffffffffffffffffffffffffffffffffffffffffff82620001ed565b620002388683620001ed565b95508019841693508086168417925050509392505050565b6000819050919050565b6000819050919050565b6000620002856200027f620002798462000250565b6200025a565b62000250565b9050919050565b6000819050919050565b620002a18362000264565b620002b9620002b0826200028c565b848454620001fa565b825550505050565b600090565b620002d0620002c1565b620002dd81848462000296565b505050565b5b818110156200030557620002f9600082620002c6565b600181019050620002e3565b5050565b601f82111562000354576200031e81620001c8565b6200032984620001dd565b8101602085101562000339578190505b620003516200034885620001dd565b830182620002e2565b50505b505050565b600082821c905092915050565b6000620003796000198460080262000359565b1980831691505092915050565b600062000394838362000366565b9150826002028217905092915050565b620003af826200012a565b67ffffffffffffffff811115620003cb57620003ca62000135565b5b620003d7825462000193565b620003e482828562000309565b600060209050601f8311600181146200041c576000841562000407578287015190505b62000413858262000386565b86555062000483565b601f1984166200042c86620001c8565b60005b8281101562000456578489015182556001820191506020850194506020810190506200042f565b8683101562000476578489015162000472601f89168262000366565b8355505b6001600288020188555050505b505050505050565b615f9a806200049b6000396000f3fe608060405234801561001057600080fd5b50600436106101da5760003560e01c80636352211e116101045780639db797f0116100a2578063c87b56dd11610071578063c87b56dd14610578578063e8b69127146105a8578063e985e9c5146105c4578063ec9da8af146105f4576101da565b80639db797f0146104df578063a22cb4651461050f578063b88d4fde1461052b578063bd11f69d14610547576101da565b8063859e7d32116100de578063859e7d32146104435780638e46d95a1461047357806395d89b41146104915780639b21151c146104af576101da565b80636352211e146103c557806370a08231146103f5578063757991a814610425576101da565b8063239ffa681161017c57806344b285db1161014b57806344b285db1461034157806350f11805146103715780635427c7911461038d5780635c5b69a9146103a9576101da565b8063239ffa68146102e357806323b872dd146102ed57806342842e0e1461030957806342966c6814610325576101da565b8063081812fc116101b8578063081812fc1461025d578063095ea7b31461028d57806318160ddd146102a957806321205226146102c7576101da565b806301ffc9a7146101df57806302a6429d1461020f57806306fdde031461023f575b600080fd5b6101f960048036038101906101f49190613f42565b610610565b6040516102069190613f8a565b60405180910390f35b61022960048036038101906102249190613fdb565b6106f2565b60405161023691906140ab565b60405180910390f35b610247610785565b60405161025491906140ab565b60405180910390f35b610277600480360381019061027291906140cd565b610817565b604051610284919061413b565b60405180910390f35b6102a760048036038101906102a29190614182565b61085d565b005b6102b1610937565b6040516102be91906141d1565b60405180910390f35b6102e160048036038101906102dc9190613fdb565b61097a565b005b6102eb6109c1565b005b610307600480360381019061030291906141ec565b610c19565b005b610323600480360381019061031e91906141ec565b610c70565b005b61033f600480360381019061033a91906140cd565b610c90565b005b61035b600480360381019061035691906140cd565b610d15565b60405161036891906140ab565b60405180910390f35b61038b600480360381019061038691906142a4565b610e19565b005b6103a760048036038101906103a29190614351565b610ebc565b005b6103c360048036038101906103be91906143a4565b61132a565b005b6103df60048036038101906103da91906140cd565b6117d1565b6040516103ec919061413b565b60405180910390f35b61040f600480360381019061040a9190614404565b61184e565b60405161041c91906141d1565b60405180910390f35b61042d6118fc565b60405161043a91906141d1565b60405180910390f35b61045d600480360381019061045891906140cd565b611909565b60405161046a91906144e3565b60405180910390f35b61047b6119eb565b604051610488919061455d565b60405180910390f35b610499611a11565b6040516104a691906140ab565b60405180910390f35b6104c960048036038101906104c49190613fdb565b611aa3565b6040516104d691906148b1565b60405180910390f35b6104f960048036038101906104f491906140cd565b611da1565b60405161050691906148b1565b60405180910390f35b610529600480360381019061052491906148cd565b611e2c565b005b61054560048036038101906105409190614a3d565b611e42565b005b610561600480360381019061055c91906140cd565b611e9b565b60405161056f929190614c7b565b60405180910390f35b610592600480360381019061058d91906140cd565b611fa2565b60405161059f91906140ab565b60405180910390f35b6105c260048036038101906105bd9190614cb2565b612034565b005b6105de60048036038101906105d99190614cff565b6122f6565b6040516105eb9190613f8a565b60405180910390f35b61060e600480360381019061060991906142a4565b61238a565b005b60007f80ac58cd000000000000000000000000000000000000000000000000000000007bffffffffffffffffffffffffffffffffffffffffffffffffffffffff1916827bffffffffffffffffffffffffffffffffffffffffffffffffffffffff191614806106db57507f5b5e139f000000000000000000000000000000000000000000000000000000007bffffffffffffffffffffffffffffffffffffffffffffffffffffffff1916827bffffffffffffffffffffffffffffffffffffffffffffffffffffffff1916145b806106eb57506106ea8261242d565b5b9050919050565b606073__$fab10bf0b211238d666ca970056d8ea500$__638cfea61c6107188585611aa3565b60076040518363ffffffff1660e01b8152600401610737929190615010565b600060405180830381865af4158015610754573d6000803e3d6000fd5b505050506040513d6000823e3d601f19601f8201168201806040525081019061077d91906150ab565b905092915050565b60606000805461079490615123565b80601f01602080910402602001604051908101604052809291908181526020018280546107c090615123565b801561080d5780601f106107e25761010080835404028352916020019161080d565b820191906000526020600020905b8154815290600101906020018083116107f057829003601f168201915b5050505050905090565b600061082282612497565b6004600083815260200190815260200160002060009054906101000a900473ffffffffffffffffffffffffffffffffffffffff169050919050565b6000610868826117d1565b90508073ffffffffffffffffffffffffffffffffffffffff168373ffffffffffffffffffffffffffffffffffffffff1614806108f157508073ffffffffffffffffffffffffffffffffffffffff166108be6124d9565b73ffffffffffffffffffffffffffffffffffffffff16141580156108f057506108ee816108e96124d9565b6122f6565b155b5b15610928576040517f2c39ec4e00000000000000000000000000000000000000000000000000000000815260040160405180910390fd5b61093283836124e1565b505050565b6000600760010160049054906101000a900463ffffffff16600760010160009054906101000a900463ffffffff1661096f9190615183565b63ffffffff16905090565b610984828261259a565b6007600101600481819054906101000a900463ffffffff1660010191906101000a81548163ffffffff021916908363ffffffff1602179055505050565b60006007600201600060076003015481526020019081526020016000209050600015158160000160189054906101000a900460ff1615151480610a535750600015158160000160199054906101000a900460ff161515148015610a52575061010043610a2d91906151bb565b8160000160109054906101000a900467ffffffffffffffff1667ffffffffffffffff16105b5b15610ab157603243610a6591906151ef565b8160000160106101000a81548167ffffffffffffffff021916908367ffffffffffffffff16021790555060018160000160186101000a81548160ff021916908315150217905550610c16565b8060000160109054906101000a900467ffffffffffffffff1667ffffffffffffffff16431115610c15576fffffffffffffffffffffffffffffffff8160000160109054906101000a900467ffffffffffffffff1667ffffffffffffffff164044604051602001610b2292919061526f565b6040516020818303038152906040528051906020012060001c610b4591906152ca565b8160000160006101000a8154816fffffffffffffffffffffffffffffffff02191690836fffffffffffffffffffffffffffffffff16021790555060018160000160196101000a81548160ff0219169083151502179055508060000160109054906101000a900467ffffffffffffffff1667ffffffffffffffff166007600301547f78611aecfda8d341359c248df527c95aef93d446c92bb928b2a81b7abcb1d8d960405160405180910390a360076003016000815480929190610c07906152fb565b9190505550610c146109c1565b5b5b50565b610c2a610c246124d9565b826127a0565b610c60576040517feaf3884400000000000000000000000000000000000000000000000000000000815260040160405180910390fd5b610c6b838383612835565b505050565b610c8b83838360405180602001604052806000815250611e42565b505050565b610c9a33826127a0565b610cd0576040517f3d693ada00000000000000000000000000000000000000000000000000000000815260040160405180910390fd5b610cd981612b13565b6007600101600481819054906101000a900463ffffffff1660010191906101000a81548163ffffffff021916908363ffffffff16021790555050565b606073__$fab10bf0b211238d666ca970056d8ea500$__638cfea61c73__$fab10bf0b211238d666ca970056d8ea500$__63ba44e5078560076040518363ffffffff1660e01b8152600401610d6b929190615352565b6103c060405180830381865af4158015610d89573d6000803e3d6000fd5b505050506040513d601f19601f82011682018060405250810190610dad9190615789565b60076040518363ffffffff1660e01b8152600401610dcc929190615010565b600060405180830381865af4158015610de9573d6000803e3d6000fd5b505050506040513d6000823e3d601f19601f82011682018060405250810190610e1291906150ab565b9050919050565b6000610e2785858585612c61565b905060005b81811015610e7b57610e70868683818110610e4a57610e496157b7565b5b90506020020135858584818110610e6457610e636157b7565b5b90506020020135612cad565b806001019050610e2c565b5080600760010160048282829054906101000a900463ffffffff160192506101000a81548163ffffffff021916908363ffffffff1602179055505050505050565b80156112e2576000600760000160008581526020019081526020016000206040518060e001604052908160008201600680602002604051908101604052809291908260068015610f49576020028201916000905b82829054906101000a900461ffff1661ffff1681526020019060020190602082600101049283019260010382029150808411610f105790505b5050505050815260200160018201600580602002604051908101604052809291908260058015610fb4576020028201916000905b82829054906101000a900460ff1660ff1681526020019060010190602082600001049283019260010382029150808411610f7d5790505b505050505081526020016002820160058060200260405190810160405280929190826005801561101f576020028201916000905b82829054906101000a900460ff1660ff1681526020019060010190602082600001049283019260010382029150808411610fe85790505b505050505081526020016003820160009054906101000a900460ff1660ff1660ff1681526020016003820160019054906101000a900463ffffffff1663ffffffff1663ffffffff1681526020016003820160059054906101000a900461ffff1661ffff1661ffff1681526020016003820160079054906101000a900462ffffff1662ffffff1662ffffff16815250509050600760000160008481526020019081526020016000206007600001600086815260200190815260200160002060008201816000019060066110f2929190613b86565b506001820181600101906005611109929190613bd1565b506002820181600201906005611120929190613bd1565b506003820160009054906101000a900460ff168160030160006101000a81548160ff021916908360ff1602179055506003820160019054906101000a900463ffffffff168160030160016101000a81548163ffffffff021916908363ffffffff1602179055506003820160059054906101000a900461ffff168160030160056101000a81548161ffff021916908361ffff1602179055506003820160079054906101000a900462ffffff168160030160076101000a81548162ffffff021916908362ffffff160217905550905050806007600001600085815260200190815260200160002060008201518160000190600661121c929190613c1c565b50602082015181600101906005611234929190613cb9565b5060408201518160020190600561124c929190613cb9565b5060608201518160030160006101000a81548160ff021916908360ff16021790555060808201518160030160016101000a81548163ffffffff021916908363ffffffff16021790555060a08201518160030160056101000a81548161ffff021916908361ffff16021790555060c08201518160030160076101000a81548162ffffff021916908362ffffff160217905550905050505b6112ec8383612cad565b6007600101600481819054906101000a900463ffffffff1660010191906101000a81548163ffffffff021916908363ffffffff160217905550505050565b600083839050905061133a6109c1565b60005b8181101561179157600085858381811061135a576113596157b7565b5b9050602002013590506000600660009054906101000a900473ffffffffffffffffffffffffffffffffffffffff1673ffffffffffffffffffffffffffffffffffffffff16636352211e836040518263ffffffff1660e01b81526004016113c091906141d1565b602060405180830381865afa1580156113dd573d6000803e3d6000fd5b505050506040513d601f19601f8201168201806040525081019061140191906157fb565b90503373ffffffffffffffffffffffffffffffffffffffff168173ffffffffffffffffffffffffffffffffffffffff16141580156114da5750600660009054906101000a900473ffffffffffffffffffffffffffffffffffffffff1673ffffffffffffffffffffffffffffffffffffffff1663e985e9c582336040518363ffffffff1660e01b8152600401611497929190615828565b602060405180830381865afa1580156114b4573d6000803e3d6000fd5b505050506040513d601f19601f820116820180604052508101906114d89190615851565b155b80156115ad57503373ffffffffffffffffffffffffffffffffffffffff16600660009054906101000a900473ffffffffffffffffffffffffffffffffffffffff1673ffffffffffffffffffffffffffffffffffffffff1663081812fc846040518263ffffffff1660e01b815260040161155391906141d1565b602060405180830381865afa158015611570573d6000803e3d6000fd5b505050506040513d601f19601f8201168201806040525081019061159491906157fb565b73ffffffffffffffffffffffffffffffffffffffff1614155b156115e4576040517f3d693ada00000000000000000000000000000000000000000000000000000000815260040160405180910390fd5b600660009054906101000a900473ffffffffffffffffffffffffffffffffffffffff1673ffffffffffffffffffffffffffffffffffffffff166342966c68836040518263ffffffff1660e01b815260040161163f91906141d1565b600060405180830381600087803b15801561165957600080fd5b505af115801561166d573d6000803e3d6000fd5b5050505060006007600001600084815260200190815260200160002090506116b0600760010160089054906101000a900463ffffffff1663ffffffff1642612f16565b8160030160076101000a81548162ffffff021916908362ffffff1602179055506007600301548160030160016101000a81548163ffffffff021916908363ffffffff160217905550828160030160056101000a81548161ffff021916908361ffff16021790555060008160030160006101000a81548160ff021916908360ff1602179055508573ffffffffffffffffffffffffffffffffffffffff163373ffffffffffffffffffffffffffffffffffffffff161461177857611773863385612f46565b611783565b6117823384612f66565b5b83600101935050505061133d565b5080600760010160008282829054906101000a900463ffffffff160192506101000a81548163ffffffff021916908363ffffffff16021790555050505050565b6000806117dd83612f84565b9050600073ffffffffffffffffffffffffffffffffffffffff168173ffffffffffffffffffffffffffffffffffffffff1603611845576040517f0397bc7f00000000000000000000000000000000000000000000000000000000815260040160405180910390fd5b80915050919050565b60008073ffffffffffffffffffffffffffffffffffffffff168273ffffffffffffffffffffffffffffffffffffffff16036118b5576040517fb8f91ff300000000000000000000000000000000000000000000000000000000815260040160405180910390fd5b600360008373ffffffffffffffffffffffffffffffffffffffff1673ffffffffffffffffffffffffffffffffffffffff168152602001908152602001600020549050919050565b6000600760030154905090565b611911613d53565b600760020160008381526020019081526020016000206040518060800160405290816000820160009054906101000a90046fffffffffffffffffffffffffffffffff166fffffffffffffffffffffffffffffffff166fffffffffffffffffffffffffffffffff1681526020016000820160109054906101000a900467ffffffffffffffff1667ffffffffffffffff1667ffffffffffffffff1681526020016000820160189054906101000a900460ff161515151581526020016000820160199054906101000a900460ff1615151515815250509050919050565b600660009054906101000a900473ffffffffffffffffffffffffffffffffffffffff1681565b606060018054611a2090615123565b80601f0160208091040260200160405190810160405280929190818152602001828054611a4c90615123565b8015611a995780601f10611a6e57610100808354040283529160200191611a99565b820191906000526020600020905b815481529060010190602001808311611a7c57829003601f168201915b5050505050905090565b611aab613d9b565b611ab483612497565b611abd82612497565b60006007600001600085815260200190815260200160002060030160009054906101000a900460ff1690506000600182611af7919061587e565b905073__$fab10bf0b211238d666ca970056d8ea500$__6390d50171868360076040518463ffffffff1660e01b8152600401611b35939291906158c2565b6103c060405180830381865af4158015611b53573d6000803e3d6000fd5b505050506040513d601f19601f82011682018060405250810190611b779190615789565b9250838360000151600001518360ff1660068110611b9857611b976157b7565b5b602002019061ffff16908161ffff168152505060058260ff161015611c2b57600080611bc48787612fc1565b91509150808560000151602001518560ff1660058110611be757611be66157b7565b5b602002019060ff16908160ff1681525050818560000151604001518560ff1660058110611c1757611c166157b7565b5b602002019060ff16908160ff168152505050505b8260c00151158015611c40575060078260ff16105b611c4b576000611c6f565b8260000151600001518260ff1660068110611c6957611c686157b7565b5b60200201515b8360a0019061ffff16908161ffff168152505073__$fab10bf0b211238d666ca970056d8ea500$__63993e246f84836040518363ffffffff1660e01b8152600401611cbb9291906158f9565b602060405180830381865af4158015611cd8573d6000803e3d6000fd5b505050506040513d601f19601f82011682018060405250810190611cfc9190615924565b8360e0019060ff16908160ff168152505073__$fab10bf0b211238d666ca970056d8ea500$__63980cd34384836040518363ffffffff1660e01b8152600401611d469291906158f9565b602060405180830381865af4158015611d63573d6000803e3d6000fd5b505050506040513d601f19601f82011682018060405250810190611d879190615924565b83610100019060ff16908160ff1681525050505092915050565b611da9613d9b565b73__$fab10bf0b211238d666ca970056d8ea500$__63ba44e5078360076040518363ffffffff1660e01b8152600401611de3929190615352565b6103c060405180830381865af4158015611e01573d6000803e3d6000fd5b505050506040513d601f19601f82011682018060405250810190611e259190615789565b9050919050565b611e3e611e376124d9565b838361318a565b5050565b611e53611e4d6124d9565b836127a0565b611e89576040517feaf3884400000000000000000000000000000000000000000000000000000000815260040160405180910390fd5b611e95848484846132ed565b50505050565b60608073__$fab10bf0b211238d666ca970056d8ea500$__63ae2a886173__$fab10bf0b211238d666ca970056d8ea500$__63ba44e5078660076040518363ffffffff1660e01b8152600401611ef2929190615352565b6103c060405180830381865af4158015611f10573d6000803e3d6000fd5b505050506040513d601f19601f82011682018060405250810190611f349190615789565b60076040518363ffffffff1660e01b8152600401611f53929190615010565b600060405180830381865af4158015611f70573d6000803e3d6000fd5b505050506040513d6000823e3d601f19601f82011682018060405250810190611f999190615b96565b91509150915091565b6060611fad82612497565b73__$6bf494065a4265f5ce886a2dbcbfd9e3aa$__63d05c212c8360076040518363ffffffff1660e01b8152600401611fe7929190615352565b600060405180830381865af4158015612004573d6000803e3d6000fd5b505050506040513d6000823e3d601f19601f8201168201806040525081019061202d9190615c0e565b9050919050565b600082829050905060408114612076576040517fe778681d00000000000000000000000000000000000000000000000000000000815260040160405180910390fd5b60005b8181101561214e576000848483818110612096576120956157b7565b5b90506020020135905060066007600001600083815260200190815260200160002060030160009054906101000a900460ff1660ff1614612102576040517f42775e9d00000000000000000000000000000000000000000000000000000000815260040160405180910390fd5b61210c33826127a0565b612142576040517f3d693ada00000000000000000000000000000000000000000000000000000000815260040160405180910390fd5b81600101915050612079565b50600083836000818110612165576121646157b7565b5b90506020020135905060006007600001600083815260200190815260200160002090506121ad600760010160089054906101000a900463ffffffff1663ffffffff1642612f16565b8160030160076101000a81548162ffffff021916908362ffffff16021790555060078160030160006101000a81548160ff021916908360ff1602179055506000600190505b838110156122275761221c8686838181106122105761220f6157b7565b5b90506020020135612b13565b8060010190506121f2565b50603f600760010160048282829054906101000a900463ffffffff160192506101000a81548163ffffffff021916908363ffffffff1602179055508484600190809261227593929190615c61565b604051612283929190615d11565b6040518091039020827f8487c13f40adf819be704c2686b8eaf22250a17df721323aea90991ea470d70060405160405180910390a37ff8e1a15aba9398e019f0b49df1a4fde98ee17ae345cb5f6b5e2c27f5033e8ce7826040516122e791906141d1565b60405180910390a15050505050565b6000600560008473ffffffffffffffffffffffffffffffffffffffff1673ffffffffffffffffffffffffffffffffffffffff16815260200190815260200160002060008373ffffffffffffffffffffffffffffffffffffffff1673ffffffffffffffffffffffffffffffffffffffff16815260200190815260200160002060009054906101000a900460ff16905092915050565b600061239885858585612c61565b905060005b818110156123ec576123e18686838181106123bb576123ba6157b7565b5b905060200201358585848181106123d5576123d46157b7565b5b9050602002013561259a565b80600101905061239d565b5080600760010160048282829054906101000a900463ffffffff160192506101000a81548163ffffffff021916908363ffffffff1602179055505050505050565b60007f01ffc9a7000000000000000000000000000000000000000000000000000000007bffffffffffffffffffffffffffffffffffffffffffffffffffffffff1916827bffffffffffffffffffffffffffffffffffffffffffffffffffffffff1916149050919050565b6124a081613340565b6124d6576040517f0397bc7f00000000000000000000000000000000000000000000000000000000815260040160405180910390fd5b50565b600033905090565b816004600083815260200190815260200160002060006101000a81548173ffffffffffffffffffffffffffffffffffffffff021916908373ffffffffffffffffffffffffffffffffffffffff160217905550808273ffffffffffffffffffffffffffffffffffffffff16612554836117d1565b73ffffffffffffffffffffffffffffffffffffffff167f8c5be1e5ebec7d5bd14f71427d1e84f3dd0314c0f7b2291e5b200ac8c7c3b92560405160405180910390a45050565b60006125a68383613381565b50915050806007600001600085815260200190815260200160002060008201816000019060066125d7929190613b86565b5060018201816001019060056125ee929190613bd1565b506002820181600201906005612605929190613bd1565b506003820160009054906101000a900460ff168160030160006101000a81548160ff021916908360ff1602179055506003820160019054906101000a900463ffffffff168160030160016101000a81548163ffffffff021916908363ffffffff1602179055506003820160059054906101000a900461ffff168160030160056101000a81548161ffff021916908361ffff1602179055506003820160079054906101000a900462ffffff168160030160076101000a81548162ffffff021916908362ffffff1602179055509050506126f8600760010160089054906101000a900463ffffffff1663ffffffff1642612f16565b6007600001600085815260200190815260200160002060030160076101000a81548162ffffff021916908362ffffff16021790555061273682612b13565b82827f2b437d4aa9e3060a2b27689497c04db7c378ca296b51df4ffaea18fa6f56881a60405160405180910390a37ff8e1a15aba9398e019f0b49df1a4fde98ee17ae345cb5f6b5e2c27f5033e8ce78360405161279391906141d1565b60405180910390a1505050565b6000806127ac836117d1565b90508073ffffffffffffffffffffffffffffffffffffffff168473ffffffffffffffffffffffffffffffffffffffff1614806127ee57506127ed81856122f6565b5b8061282c57508373ffffffffffffffffffffffffffffffffffffffff1661281484610817565b73ffffffffffffffffffffffffffffffffffffffff16145b91505092915050565b8273ffffffffffffffffffffffffffffffffffffffff16612855826117d1565b73ffffffffffffffffffffffffffffffffffffffff16146128a2576040517fb8f91ff300000000000000000000000000000000000000000000000000000000815260040160405180910390fd5b600073ffffffffffffffffffffffffffffffffffffffff168273ffffffffffffffffffffffffffffffffffffffff1603612908576040517f6474b5a200000000000000000000000000000000000000000000000000000000815260040160405180910390fd5b612915838383600161345f565b8273ffffffffffffffffffffffffffffffffffffffff16612935826117d1565b73ffffffffffffffffffffffffffffffffffffffff1614612982576040517fb8f91ff300000000000000000000000000000000000000000000000000000000815260040160405180910390fd5b6004600082815260200190815260200160002060006101000a81549073ffffffffffffffffffffffffffffffffffffffff02191690556001600360008573ffffffffffffffffffffffffffffffffffffffff1673ffffffffffffffffffffffffffffffffffffffff168152602001908152602001600020600082825403925050819055506001600360008473ffffffffffffffffffffffffffffffffffffffff1673ffffffffffffffffffffffffffffffffffffffff16815260200190815260200160002060008282540192505081905550816002600083815260200190815260200160002060006101000a81548173ffffffffffffffffffffffffffffffffffffffff021916908373ffffffffffffffffffffffffffffffffffffffff160217905550808273ffffffffffffffffffffffffffffffffffffffff168473ffffffffffffffffffffffffffffffffffffffff167fddf252ad1be2c89b69c2b068fc378daa952ba7f163c4a11628f55a4df523b3ef60405160405180910390a4612b0e8383836001613585565b505050565b6000612b1e826117d1565b9050612b2e81600084600161345f565b612b37826117d1565b90506004600083815260200190815260200160002060006101000a81549073ffffffffffffffffffffffffffffffffffffffff02191690556001600360008373ffffffffffffffffffffffffffffffffffffffff1673ffffffffffffffffffffffffffffffffffffffff168152602001908152602001600020600082825403925050819055506002600083815260200190815260200160002060006101000a81549073ffffffffffffffffffffffffffffffffffffffff021916905581600073ffffffffffffffffffffffffffffffffffffffff168273ffffffffffffffffffffffffffffffffffffffff167fddf252ad1be2c89b69c2b068fc378daa952ba7f163c4a11628f55a4df523b3ef60405160405180910390a4612c5d816000846001613585565b5050565b6000848490509050828290508114612ca5576040517fe778681d00000000000000000000000000000000000000000000000000000000815260040160405180910390fd5b949350505050565b600080612cba8484613381565b92505091506000600182612cce919061587e565b905060058260ff161015612d6457600080612ce98787612fc1565b9150915080856001018560ff1660058110612d0757612d066157b7565b5b602091828204019190066101000a81548160ff021916908360ff16021790555081856002018560ff1660058110612d4157612d406157b7565b5b602091828204019190066101000a81548160ff021916908360ff16021790555050505b612d89600760010160089054906101000a900463ffffffff1663ffffffff1642612f16565b8360030160076101000a81548162ffffff021916908362ffffff16021790555083836000018360ff1660068110612dc357612dc26157b7565b5b601091828204019190066002026101000a81548161ffff021916908361ffff160217905550808360030160006101000a81548160ff021916908360ff160217905550612e0e84612b13565b73__$fab10bf0b211238d666ca970056d8ea500$__6353bfca206040518163ffffffff1660e01b815260040161010060405180830381865af4158015612e58573d6000803e3d6000fd5b505050506040513d601f19601f82011682018060405250810190612e7c9190615ddb565b8360030160009054906101000a900460ff1660ff1660088110612ea257612ea16157b7565b5b602002015160ff1684867f905feedea1eda3a8be0478a0f07f90de1ac162b88dfb7cc30cb5d2d57323f0af60405160405180910390a47ff8e1a15aba9398e019f0b49df1a4fde98ee17ae345cb5f6b5e2c27f5033e8ce785604051612f0791906141d1565b60405180910390a15050505050565b60006001620151808484612f2a91906151bb565b612f349190615e09565b612f3e91906151ef565b905092915050565b612f618383836040518060200160405280600081525061358b565b505050565b612f808282604051806020016040528060008152506135df565b5050565b60006002600083815260200190815260200160002060009054906101000a900473ffffffffffffffffffffffffffffffffffffffff169050919050565b600080600073__$fab10bf0b211238d666ca970056d8ea500$__63ba44e5078660076040518363ffffffff1660e01b8152600401613000929190615352565b6103c060405180830381865af415801561301e573d6000803e3d6000fd5b505050506040513d601f19601f820116820180604052508101906130429190615789565b9050600073__$fab10bf0b211238d666ca970056d8ea500$__63ba44e5078660076040518363ffffffff1660e01b8152600401613080929190615352565b6103c060405180830381865af415801561309e573d6000803e3d6000fd5b505050506040513d601f19601f820116820180604052508101906130c29190615789565b90506000826040015182604001516040516020016130e1929190615e3a565b6040516020818303038152906040528051906020012060001c90506050613109826064613631565b1161312757613122836101000151836101000151613670565b61316a565b600060028261313691906152ca565b146131545761314f83610100015183610100015161368f565b613169565b6131688361010001518361010001516136ae565b5b5b945061317e8360e001518360e001516136df565b93505050509250929050565b8173ffffffffffffffffffffffffffffffffffffffff168373ffffffffffffffffffffffffffffffffffffffff16036131ef576040517f2c39ec4e00000000000000000000000000000000000000000000000000000000815260040160405180910390fd5b80600560008573ffffffffffffffffffffffffffffffffffffffff1673ffffffffffffffffffffffffffffffffffffffff16815260200190815260200160002060008473ffffffffffffffffffffffffffffffffffffffff1673ffffffffffffffffffffffffffffffffffffffff16815260200190815260200160002060006101000a81548160ff0219169083151502179055508173ffffffffffffffffffffffffffffffffffffffff168373ffffffffffffffffffffffffffffffffffffffff167f17307eab39ab6107e8899845ad3d59bd9653f200f220920489ca2b5937696c31836040516132e09190613f8a565b60405180910390a3505050565b6132f8848484612835565b61330484848484613701565b61333a576040517f91ec2e4700000000000000000000000000000000000000000000000000000000815260040160405180910390fd5b50505050565b60008073ffffffffffffffffffffffffffffffffffffffff1661336283612f84565b73ffffffffffffffffffffffffffffffffffffffff1614159050919050565b60008060006007600001600086815260200190815260200160002092506007600001600085815260200190815260200160002091508260030160009054906101000a900460ff1690506133d433866127a0565b15806133e757506133e533856127a0565b155b8061340957508160030160009054906101000a900460ff1660ff168160ff1614155b8061341357508385145b80613421575060058160ff16115b15613458576040517f3d693ada00000000000000000000000000000000000000000000000000000000815260040160405180910390fd5b9250925092565b600181111561357f57600073ffffffffffffffffffffffffffffffffffffffff168473ffffffffffffffffffffffffffffffffffffffff16146134f35780600360008673ffffffffffffffffffffffffffffffffffffffff1673ffffffffffffffffffffffffffffffffffffffff16815260200190815260200160002060008282546134eb91906151bb565b925050819055505b600073ffffffffffffffffffffffffffffffffffffffff168373ffffffffffffffffffffffffffffffffffffffff161461357e5780600360008573ffffffffffffffffffffffffffffffffffffffff1673ffffffffffffffffffffffffffffffffffffffff168152602001908152602001600020600082825461357691906151ef565b925050819055505b5b50505050565b50505050565b61359684848461387f565b6135a36000858484613701565b6135d9576040517f91ec2e4700000000000000000000000000000000000000000000000000000000815260040160405180910390fd5b50505050565b6135e98383613953565b6135f66000848484613701565b61362c576040517f91ec2e4700000000000000000000000000000000000000000000000000000000815260040160405180910390fd5b505050565b600081836040516020016136459190615e66565b6040516020818303038152906040528051906020012060001c61366891906152ca565b905092915050565b60008160ff168360ff16106136855781613687565b825b905092915050565b60008160ff168360ff16116136a457816136a6565b825b905092915050565b60008160ff168360ff16116136c357826136d7565b60008260ff16116136d457826136d6565b815b5b905092915050565b600060018284161660018360ff16901c60018560ff16901c0101905092915050565b60006137228473ffffffffffffffffffffffffffffffffffffffff166139cb565b15613872578373ffffffffffffffffffffffffffffffffffffffff1663150b7a0261374b6124d9565b8786866040518563ffffffff1660e01b815260040161376d9493929190615ed6565b6020604051808303816000875af19250505080156137a957506040513d601f19601f820116820180604052508101906137a69190615f37565b60015b613822573d80600081146137d9576040519150601f19603f3d011682016040523d82523d6000602084013e6137de565b606091505b50600081510361381a576040517f91ec2e4700000000000000000000000000000000000000000000000000000000815260040160405180910390fd5b805181602001fd5b63150b7a0260e01b7bffffffffffffffffffffffffffffffffffffffffffffffffffffffff1916817bffffffffffffffffffffffffffffffffffffffffffffffffffffffff191614915050613877565b600190505b949350505050565b61388983826139ee565b808273ffffffffffffffffffffffffffffffffffffffff16600073ffffffffffffffffffffffffffffffffffffffff167fddf252ad1be2c89b69c2b068fc378daa952ba7f163c4a11628f55a4df523b3ef60405160405180910390a4808373ffffffffffffffffffffffffffffffffffffffff168373ffffffffffffffffffffffffffffffffffffffff167fddf252ad1be2c89b69c2b068fc378daa952ba7f163c4a11628f55a4df523b3ef60405160405180910390a461394e600084836001613585565b505050565b61395d82826139ee565b808273ffffffffffffffffffffffffffffffffffffffff16600073ffffffffffffffffffffffffffffffffffffffff167fddf252ad1be2c89b69c2b068fc378daa952ba7f163c4a11628f55a4df523b3ef60405160405180910390a46139c7600083836001613585565b5050565b6000808273ffffffffffffffffffffffffffffffffffffffff163b119050919050565b600073ffffffffffffffffffffffffffffffffffffffff168273ffffffffffffffffffffffffffffffffffffffff1603613a54576040517f6474b5a200000000000000000000000000000000000000000000000000000000815260040160405180910390fd5b613a5d81613340565b15613a94576040517f5a5ab17e00000000000000000000000000000000000000000000000000000000815260040160405180910390fd5b613aa260008383600161345f565b613aab81613340565b15613ae2576040517f5a5ab17e00000000000000000000000000000000000000000000000000000000815260040160405180910390fd5b6001600360008473ffffffffffffffffffffffffffffffffffffffff1673ffffffffffffffffffffffffffffffffffffffff16815260200190815260200160002060008282540192505081905550816002600083815260200190815260200160002060006101000a81548173ffffffffffffffffffffffffffffffffffffffff021916908373ffffffffffffffffffffffffffffffffffffffff1602179055505050565b826006600f01601090048101928215613bc05791600f016010900482015b82811115613bbf578254825591600101919060010190613ba4565b5b509050613bcd9190613e14565b5090565b826005601f01602090048101928215613c0b5791601f016020900482015b82811115613c0a578254825591600101919060010190613bef565b5b509050613c189190613e14565b5090565b826006600f01601090048101928215613ca85791602002820160005b83821115613c7857835183826101000a81548161ffff021916908361ffff1602179055509260200192600201602081600101049283019260010302613c38565b8015613ca65782816101000a81549061ffff0219169055600201602081600101049283019260010302613c78565b505b509050613cb59190613e14565b5090565b826005601f01602090048101928215613d425791602002820160005b83821115613d1357835183826101000a81548160ff021916908360ff1602179055509260200192600101602081600001049283019260010302613cd5565b8015613d405782816101000a81549060ff0219169055600101602081600001049283019260010302613d13565b505b509050613d4f9190613e14565b5090565b604051806080016040528060006fffffffffffffffffffffffffffffffff168152602001600067ffffffffffffffff1681526020016000151581526020016000151581525090565b604051806101600160405280613daf613e31565b815260200160001515815260200160008152602001600060ff168152602001600015158152602001600061ffff168152602001600015158152602001600060ff168152602001600060ff168152602001600060ff168152602001600060ff1681525090565b5b80821115613e2d576000816000905550600101613e15565b5090565b6040518060e00160405280613e44613e92565b8152602001613e51613eb4565b8152602001613e5e613eb4565b8152602001600060ff168152602001600063ffffffff168152602001600061ffff168152602001600062ffffff1681525090565b6040518060c00160405280600690602082028036833780820191505090505090565b6040518060a00160405280600590602082028036833780820191505090505090565b6000604051905090565b600080fd5b600080fd5b60007fffffffff0000000000000000000000000000000000000000000000000000000082169050919050565b613f1f81613eea565b8114613f2a57600080fd5b50565b600081359050613f3c81613f16565b92915050565b600060208284031215613f5857613f57613ee0565b5b6000613f6684828501613f2d565b91505092915050565b60008115159050919050565b613f8481613f6f565b82525050565b6000602082019050613f9f6000830184613f7b565b92915050565b6000819050919050565b613fb881613fa5565b8114613fc357600080fd5b50565b600081359050613fd581613faf565b92915050565b60008060408385031215613ff257613ff1613ee0565b5b600061400085828601613fc6565b925050602061401185828601613fc6565b9150509250929050565b600081519050919050565b600082825260208201905092915050565b60005b8381101561405557808201518184015260208101905061403a565b60008484015250505050565b6000601f19601f8301169050919050565b600061407d8261401b565b6140878185614026565b9350614097818560208601614037565b6140a081614061565b840191505092915050565b600060208201905081810360008301526140c58184614072565b905092915050565b6000602082840312156140e3576140e2613ee0565b5b60006140f184828501613fc6565b91505092915050565b600073ffffffffffffffffffffffffffffffffffffffff82169050919050565b6000614125826140fa565b9050919050565b6141358161411a565b82525050565b6000602082019050614150600083018461412c565b92915050565b61415f8161411a565b811461416a57600080fd5b50565b60008135905061417c81614156565b92915050565b6000806040838503121561419957614198613ee0565b5b60006141a78582860161416d565b92505060206141b885828601613fc6565b9150509250929050565b6141cb81613fa5565b82525050565b60006020820190506141e660008301846141c2565b92915050565b60008060006060848603121561420557614204613ee0565b5b60006142138682870161416d565b93505060206142248682870161416d565b925050604061423586828701613fc6565b9150509250925092565b600080fd5b600080fd5b600080fd5b60008083601f8401126142645761426361423f565b5b8235905067ffffffffffffffff81111561428157614280614244565b5b60208301915083602082028301111561429d5761429c614249565b5b9250929050565b600080600080604085870312156142be576142bd613ee0565b5b600085013567ffffffffffffffff8111156142dc576142db613ee5565b5b6142e88782880161424e565b9450945050602085013567ffffffffffffffff81111561430b5761430a613ee5565b5b6143178782880161424e565b925092505092959194509250565b61432e81613f6f565b811461433957600080fd5b50565b60008135905061434b81614325565b92915050565b60008060006060848603121561436a57614369613ee0565b5b600061437886828701613fc6565b935050602061438986828701613fc6565b925050604061439a8682870161433c565b9150509250925092565b6000806000604084860312156143bd576143bc613ee0565b5b600084013567ffffffffffffffff8111156143db576143da613ee5565b5b6143e78682870161424e565b935093505060206143fa8682870161416d565b9150509250925092565b60006020828403121561441a57614419613ee0565b5b60006144288482850161416d565b91505092915050565b60006fffffffffffffffffffffffffffffffff82169050919050565b61445681614431565b82525050565b600067ffffffffffffffff82169050919050565b6144798161445c565b82525050565b61448881613f6f565b82525050565b6080820160008201516144a4600085018261444d565b5060208201516144b76020850182614470565b5060408201516144ca604085018261447f565b5060608201516144dd606085018261447f565b50505050565b60006080820190506144f8600083018461448e565b92915050565b6000819050919050565b600061452361451e614519846140fa565b6144fe565b6140fa565b9050919050565b600061453582614508565b9050919050565b60006145478261452a565b9050919050565b6145578161453c565b82525050565b6000602082019050614572600083018461454e565b92915050565b600060069050919050565b600081905092915050565b6000819050919050565b600061ffff82169050919050565b6145af81614598565b82525050565b60006145c183836145a6565b60208301905092915050565b6000602082019050919050565b6145e381614578565b6145ed8184614583565b92506145f88261458e565b8060005b8381101561462957815161461087826145b5565b965061461b836145cd565b9250506001810190506145fc565b505050505050565b600060059050919050565b600081905092915050565b6000819050919050565b600060ff82169050919050565b61466781614651565b82525050565b6000614679838361465e565b60208301905092915050565b6000602082019050919050565b61469b81614631565b6146a5818461463c565b92506146b082614647565b8060005b838110156146e15781516146c8878261466d565b96506146d383614685565b9250506001810190506146b4565b505050505050565b600063ffffffff82169050919050565b614702816146e9565b82525050565b600062ffffff82169050919050565b61472081614708565b82525050565b6102808201600082015161473d60008501826145da565b50602082015161475060c0850182614692565b506040820151614764610160850182614692565b50606082015161477861020085018261465e565b50608082015161478c6102208501826146f9565b5060a08201516147a06102408501826145a6565b5060c08201516147b4610260850182614717565b50505050565b6147c381613fa5565b82525050565b6103c0820160008201516147e06000850182614726565b5060208201516147f461028085018261447f565b5060408201516148086102a08501826147ba565b50606082015161481c6102c085018261465e565b5060808201516148306102e085018261447f565b5060a08201516148446103008501826145a6565b5060c082015161485861032085018261447f565b5060e082015161486c61034085018261465e565b5061010082015161488161036085018261465e565b5061012082015161489661038085018261465e565b506101408201516148ab6103a085018261465e565b50505050565b60006103c0820190506148c760008301846147c9565b92915050565b600080604083850312156148e4576148e3613ee0565b5b60006148f28582860161416d565b92505060206149038582860161433c565b9150509250929050565b600080fd5b7f4e487b7100000000000000000000000000000000000000000000000000000000600052604160045260246000fd5b61494a82614061565b810181811067ffffffffffffffff8211171561496957614968614912565b5b80604052505050565b600061497c613ed6565b90506149888282614941565b919050565b600067ffffffffffffffff8211156149a8576149a7614912565b5b6149b182614061565b9050602081019050919050565b82818337600083830152505050565b60006149e06149db8461498d565b614972565b9050828152602081018484840111156149fc576149fb61490d565b5b614a078482856149be565b509392505050565b600082601f830112614a2457614a2361423f565b5b8135614a348482602086016149cd565b91505092915050565b60008060008060808587031215614a5757614a56613ee0565b5b6000614a658782880161416d565b9450506020614a768782880161416d565b9350506040614a8787828801613fc6565b925050606085013567ffffffffffffffff811115614aa857614aa7613ee5565b5b614ab487828801614a0f565b91505092959194509250565b600081519050919050565b600082825260208201905092915050565b6000819050602082019050919050565b600082825260208201905092915050565b6000614b088261401b565b614b128185614aec565b9350614b22818560208601614037565b614b2b81614061565b840191505092915050565b6000614b428383614afd565b905092915050565b6000602082019050919050565b6000614b6282614ac0565b614b6c8185614acb565b935083602082028501614b7e85614adc565b8060005b85811015614bba5784840389528151614b9b8582614b36565b9450614ba683614b4a565b925060208a01995050600181019050614b82565b50829750879550505050505092915050565b600081519050919050565b600082825260208201905092915050565b6000819050602082019050919050565b6000614c0483836147ba565b60208301905092915050565b6000602082019050919050565b6000614c2882614bcc565b614c328185614bd7565b9350614c3d83614be8565b8060005b83811015614c6e578151614c558882614bf8565b9750614c6083614c10565b925050600181019050614c41565b5085935050505092915050565b60006040820190508181036000830152614c958185614b57565b90508181036020830152614ca98184614c1d565b90509392505050565b60008060208385031215614cc957614cc8613ee0565b5b600083013567ffffffffffffffff811115614ce757614ce6613ee5565b5b614cf38582860161424e565b92509250509250929050565b60008060408385031215614d1657614d15613ee0565b5b6000614d248582860161416d565b9250506020614d358582860161416d565b9150509250929050565b600081905092915050565b614d5381614598565b82525050565b6000614d658383614d4a565b60208301905092915050565b614d7a81614578565b614d848184614d3f565b9250614d8f8261458e565b8060005b83811015614dc0578151614da78782614d59565b9650614db2836145cd565b925050600181019050614d93565b505050505050565b600081905092915050565b614ddc81614651565b82525050565b6000614dee8383614dd3565b60208301905092915050565b614e0381614631565b614e0d8184614dc8565b9250614e1882614647565b8060005b83811015614e49578151614e308782614de2565b9650614e3b83614685565b925050600181019050614e1c565b505050505050565b614e5a816146e9565b82525050565b614e6981614708565b82525050565b61028082016000820151614e866000850182614d71565b506020820151614e9960c0850182614dfa565b506040820151614ead610160850182614dfa565b506060820151614ec1610200850182614dd3565b506080820151614ed5610220850182614e51565b5060a0820151614ee9610240850182614d4a565b5060c0820151614efd610260850182614e60565b50505050565b614f0c81613f6f565b82525050565b614f1b81613fa5565b82525050565b6103c082016000820151614f386000850182614e6f565b506020820151614f4c610280850182614f03565b506040820151614f606102a0850182614f12565b506060820151614f746102c0850182614dd3565b506080820151614f886102e0850182614f03565b5060a0820151614f9c610300850182614d4a565b5060c0820151614fb0610320850182614f03565b5060e0820151614fc4610340850182614dd3565b50610100820151614fd9610360850182614dd3565b50610120820151614fee610380850182614dd3565b506101408201516150036103a0850182614dd3565b50505050565b8082525050565b60006103e0820190506150266000830185614f21565b6150346103c0830184615009565b9392505050565b600061504e6150498461498d565b614972565b90508281526020810184848401111561506a5761506961490d565b5b615075848285614037565b509392505050565b600082601f8301126150925761509161423f565b5b81516150a284826020860161503b565b91505092915050565b6000602082840312156150c1576150c0613ee0565b5b600082015167ffffffffffffffff8111156150df576150de613ee5565b5b6150eb8482850161507d565b91505092915050565b7f4e487b7100000000000000000000000000000000000000000000000000000000600052602260045260246000fd5b6000600282049050600182168061513b57607f821691505b60208210810361514e5761514d6150f4565b5b50919050565b7f4e487b7100000000000000000000000000000000000000000000000000000000600052601160045260246000fd5b600061518e826146e9565b9150615199836146e9565b9250828203905063ffffffff8111156151b5576151b4615154565b5b92915050565b60006151c682613fa5565b91506151d183613fa5565b92508282039050818111156151e9576151e8615154565b5b92915050565b60006151fa82613fa5565b915061520583613fa5565b925082820190508082111561521d5761521c615154565b5b92915050565b6000819050919050565b6000819050919050565b61524861524382615223565b61522d565b82525050565b6000819050919050565b61526961526482613fa5565b61524e565b82525050565b600061527b8285615237565b60208201915061528b8284615258565b6020820191508190509392505050565b7f4e487b7100000000000000000000000000000000000000000000000000000000600052601260045260246000fd5b60006152d582613fa5565b91506152e083613fa5565b9250826152f0576152ef61529b565b5b828206905092915050565b600061530682613fa5565b91507fffffffffffffffffffffffffffffffffffffffffffffffffffffffffffffffff820361533857615337615154565b5b600182019050919050565b61534c81613fa5565b82525050565b60006040820190506153676000830185615343565b6153746020830184615009565b9392505050565b600080fd5b600067ffffffffffffffff82111561539b5761539a614912565b5b602082029050919050565b6153af81614598565b81146153ba57600080fd5b50565b6000815190506153cc816153a6565b92915050565b60006153e56153e084615380565b614972565b905080602084028301858111156153ff576153fe614249565b5b835b81811015615428578061541488826153bd565b845260208401935050602081019050615401565b5050509392505050565b600082601f8301126154475761544661423f565b5b60066154548482856153d2565b91505092915050565b600067ffffffffffffffff82111561547857615477614912565b5b602082029050919050565b61548c81614651565b811461549757600080fd5b50565b6000815190506154a981615483565b92915050565b60006154c26154bd8461545d565b614972565b905080602084028301858111156154dc576154db614249565b5b835b8181101561550557806154f1888261549a565b8452602084019350506020810190506154de565b5050509392505050565b600082601f8301126155245761552361423f565b5b60056155318482856154af565b91505092915050565b615543816146e9565b811461554e57600080fd5b50565b6000815190506155608161553a565b92915050565b61556f81614708565b811461557a57600080fd5b50565b60008151905061558c81615566565b92915050565b600061028082840312156155a9576155a861537b565b5b6155b360e0614972565b905060006155c384828501615432565b60008301525060c06155d78482850161550f565b6020830152506101606155ec8482850161550f565b6040830152506102006156018482850161549a565b60608301525061022061561684828501615551565b60808301525061024061562b848285016153bd565b60a0830152506102606156408482850161557d565b60c08301525092915050565b60008151905061565b81614325565b92915050565b60008151905061567081613faf565b92915050565b60006103c0828403121561568d5761568c61537b565b5b615698610160614972565b905060006156a884828501615592565b6000830152506102806156bd8482850161564c565b6020830152506102a06156d284828501615661565b6040830152506102c06156e78482850161549a565b6060830152506102e06156fc8482850161564c565b608083015250610300615711848285016153bd565b60a0830152506103206157268482850161564c565b60c08301525061034061573b8482850161549a565b60e0830152506103606157508482850161549a565b610100830152506103806157668482850161549a565b610120830152506103a061577c8482850161549a565b6101408301525092915050565b60006103c082840312156157a05761579f613ee0565b5b60006157ae84828501615676565b91505092915050565b7f4e487b7100000000000000000000000000000000000000000000000000000000600052603260045260246000fd5b6000815190506157f581614156565b92915050565b60006020828403121561581157615810613ee0565b5b600061581f848285016157e6565b91505092915050565b600060408201905061583d600083018561412c565b61584a602083018461412c565b9392505050565b60006020828403121561586757615866613ee0565b5b60006158758482850161564c565b91505092915050565b600061588982614651565b915061589483614651565b9250828201905060ff8111156158ad576158ac615154565b5b92915050565b6158bc81614651565b82525050565b60006060820190506158d76000830186615343565b6158e460208301856158b3565b6158f16040830184615009565b949350505050565b60006103e08201905061590f6000830185614f21565b61591d6103c08301846158b3565b9392505050565b60006020828403121561593a57615939613ee0565b5b60006159488482850161549a565b91505092915050565b600067ffffffffffffffff82111561596c5761596b614912565b5b602082029050602081019050919050565b600067ffffffffffffffff82111561599857615997614912565b5b6159a182614061565b9050602081019050919050565b60006159c16159bc8461597d565b614972565b9050828152602081018484840111156159dd576159dc61490d565b5b6159e8848285614037565b509392505050565b600082601f830112615a0557615a0461423f565b5b8151615a158482602086016159ae565b91505092915050565b6000615a31615a2c84615951565b614972565b90508083825260208201905060208402830185811115615a5457615a53614249565b5b835b81811015615a9b57805167ffffffffffffffff811115615a7957615a7861423f565b5b808601615a8689826159f0565b85526020850194505050602081019050615a56565b5050509392505050565b600082601f830112615aba57615ab961423f565b5b8151615aca848260208601615a1e565b91505092915050565b600067ffffffffffffffff821115615aee57615aed614912565b5b602082029050602081019050919050565b6000615b12615b0d84615ad3565b614972565b90508083825260208201905060208402830185811115615b3557615b34614249565b5b835b81811015615b5e5780615b4a8882615661565b845260208401935050602081019050615b37565b5050509392505050565b600082601f830112615b7d57615b7c61423f565b5b8151615b8d848260208601615aff565b91505092915050565b60008060408385031215615bad57615bac613ee0565b5b600083015167ffffffffffffffff811115615bcb57615bca613ee5565b5b615bd785828601615aa5565b925050602083015167ffffffffffffffff811115615bf857615bf7613ee5565b5b615c0485828601615b68565b9150509250929050565b600060208284031215615c2457615c23613ee0565b5b600082015167ffffffffffffffff811115615c4257615c41613ee5565b5b615c4e848285016159f0565b91505092915050565b600080fd5b600080fd5b60008085851115615c7557615c74615c57565b5b83861115615c8657615c85615c5c565b5b6020850283019150848603905094509492505050565b600081905092915050565b600080fd5b82818337505050565b6000615cc18385615c9c565b93507f07ffffffffffffffffffffffffffffffffffffffffffffffffffffffffffffff831115615cf457615cf3615ca7565b5b602083029250615d05838584615cac565b82840190509392505050565b6000615d1e828486615cb5565b91508190509392505050565b600067ffffffffffffffff821115615d4557615d44614912565b5b602082029050919050565b6000615d63615d5e84615d2a565b614972565b90508060208402830185811115615d7d57615d7c614249565b5b835b81811015615da65780615d92888261549a565b845260208401935050602081019050615d7f565b5050509392505050565b600082601f830112615dc557615dc461423f565b5b6008615dd2848285615d50565b91505092915050565b60006101008284031215615df257615df1613ee0565b5b6000615e0084828501615db0565b91505092915050565b6000615e1482613fa5565b9150615e1f83613fa5565b925082615e2f57615e2e61529b565b5b828204905092915050565b6000615e468285615258565b602082019150615e568284615258565b6020820191508190509392505050565b6000615e728284615258565b60208201915081905092915050565b600081519050919050565b600082825260208201905092915050565b6000615ea882615e81565b615eb28185615e8c565b9350615ec2818560208601614037565b615ecb81614061565b840191505092915050565b6000608082019050615eeb600083018761412c565b615ef8602083018661412c565b615f0560408301856141c2565b8181036060830152615f178184615e9d565b905095945050505050565b600081519050615f3181613f16565b92915050565b600060208284031215615f4d57615f4c613ee0565b5b6000615f5b84828501615f22565b9150509291505056fea26469706673582212201754a436c0b93793216b3c1e456c930b4d04ac3c3951b1ff79f648cc53e0118564736f6c63430008110033",
  "linkReferences": {
    "contracts/libraries/ChecksArt.sol": {
      "ChecksArt": [
        {
          "length": 20,
          "start": 2961
        },
        {
          "length": 20,
          "start": 4532
        },
        {
          "length": 20,
          "start": 4558
        },
        {
          "length": 20,
          "start": 8086
        },
        {
          "length": 20,
          "start": 8479
        },
        {
          "length": 20,
          "start": 8618
        },
        {
          "length": 20,
          "start": 8774
        },
        {
          "length": 20,
          "start": 9019
        },
        {
          "length": 20,
          "start": 9045
        },
        {
          "length": 20,
          "start": 12971
        },
        {
          "length": 20,
          "start": 13411
        },
        {
          "length": 20,
          "start": 13539
        }
      ]
    },
    "contracts/libraries/ChecksMetadata.sol": {
      "ChecksMetadata": [
        {
          "length": 20,
          "start": 9290
        }
      ]
    }
  },
  "deployedLinkReferences": {
    "contracts/libraries/ChecksArt.sol": {
      "ChecksArt": [
        {
          "length": 20,
          "start": 1782
        },
        {
          "length": 20,
          "start": 3353
        },
        {
          "length": 20,
          "start": 3379
        },
        {
          "length": 20,
          "start": 6907
        },
        {
          "length": 20,
          "start": 7300
        },
        {
          "length": 20,
          "start": 7439
        },
        {
          "length": 20,
          "start": 7595
        },
        {
          "length": 20,
          "start": 7840
        },
        {
          "length": 20,
          "start": 7866
        },
        {
          "length": 20,
          "start": 11792
        },
        {
          "length": 20,
          "start": 12232
        },
        {
          "length": 20,
          "start": 12360
        }
      ]
    },
    "contracts/libraries/ChecksMetadata.sol": {
      "ChecksMetadata": [
        {
          "length": 20,
          "start": 8111
        }
      ]
    }
  }
}